{"abi":[{"type":"constructor","inputs":[{"name":"_forwarderAddress","type":"address","internalType":"address"}],"stateMutability":"nonpayable"},{"type":"function","name":"claim","inputs":[{"name":"marketId","type":"uint256","internalType":"uint256"}],"outputs":[],"stateMutability":"nonpayable"},{"type":"function","name":"createMarket","inputs":[{"name":"question","type":"string","internalType":"string"},{"name":"deadline","type":"uint48","internalType":"uint48"}],"outputs":[{"name":"marketId","type":"uint256","internalType":"uint256"}],"stateMutability":"nonpayable"},{"type":"function","name":"getExpectedAuthor","inputs":[],"outputs":[{"name":"","type":"address","internalType":"address"}],"stateMutability":"view"},{"type":"function","name":"getExpectedWorkflowId","inputs":[],"outputs":[{"name":"","type":"bytes32","internalType":"bytes32"}],"stateMutability":"view"},{"type":"function","name":"getExpectedWorkflowName","inputs":[],"outputs":[{"name":"","type":"bytes10","internalType":"bytes10"}],"stateMutability":"view"},{"type":"function","name":"getForwarderAddress","inputs":[],"outputs":[{"name":"","type":"address","internalType":"address"}],"stateMutability":"view"},{"type":"function","name":"getMarket","inputs":[{"name":"marketId","type":"uint256","internalType":"uint256"}],"outputs":[{"name":"","type":"tuple","internalType":"struct SportsPredictionMarket.Market","components":[{"name":"creator","type":"address","internalType":"address"},{"name":"createdAt","type":"uint48","internalType":"uint48"},{"name":"deadline","type":"uint48","internalType":"uint48"},{"name":"settledAt","type":"uint48","internalType":"uint48"},{"name":"settled","type":"bool","internalType":"bool"},{"name":"confidence","type":"uint16","internalType":"uint16"},{"name":"outcome","type":"uint8","internalType":"enum SportsPredictionMarket.Prediction"},{"name":"totalYesPool","type":"uint256","internalType":"uint256"},{"name":"totalNoPool","type":"uint256","internalType":"uint256"},{"name":"question","type":"string","internalType":"string"}]}],"stateMutability":"view"},{"type":"function","name":"nextMarketId","inputs":[],"outputs":[{"name":"","type":"uint256","internalType":"uint256"}],"stateMutability":"view"},{"type":"function","name":"onReport","inputs":[{"name":"metadata","type":"bytes","internalType":"bytes"},{"name":"report","type":"bytes","internalType":"bytes"}],"outputs":[],"stateMutability":"nonpayable"},{"type":"function","name":"owner","inputs":[],"outputs":[{"name":"","type":"address","internalType":"address"}],"stateMutability":"view"},{"type":"function","name":"predict","inputs":[{"name":"marketId","type":"uint256","internalType":"uint256"},{"name":"prediction","type":"uint8","internalType":"enum SportsPredictionMarket.Prediction"}],"outputs":[],"stateMutability":"payable"},{"type":"function","name":"renounceOwnership","inputs":[],"outputs":[],"stateMutability":"nonpayable"},{"type":"function","name":"requestSettlement","inputs":[{"name":"marketId","type":"uint256","internalType":"uint256"}],"outputs":[],"stateMutability":"nonpayable"},{"type":"function","name":"setExpectedAuthor","inputs":[{"name":"_author","type":"address","internalType":"address"}],"outputs":[],"stateMutability":"nonpayable"},{"type":"function","name":"setExpectedWorkflowId","inputs":[{"name":"_id","type":"bytes32","internalType":"bytes32"}],"outputs":[],"stateMutability":"nonpayable"},{"type":"function","name":"setExpectedWorkflowName","inputs":[{"name":"_name","type":"string","internalType":"string"}],"outputs":[],"stateMutability":"nonpayable"},{"type":"function","name":"setForwarderAddress","inputs":[{"name":"_forwarder","type":"address","internalType":"address"}],"outputs":[],"stateMutability":"nonpayable"},{"type":"function","name":"supportsInterface","inputs":[{"name":"interfaceId","type":"bytes4","internalType":"bytes4"}],"outputs":[{"name":"","type":"bool","internalType":"bool"}],"stateMutability":"pure"},{"type":"function","name":"transferOwnership","inputs":[{"name":"newOwner","type":"address","internalType":"address"}],"outputs":[],"stateMutability":"nonpayable"},{"type":"event","name":"ExpectedAuthorUpdated","inputs":[{"name":"previousAuthor","type":"address","indexed":true,"internalType":"address"},{"name":"newAuthor","type":"address","indexed":true,"internalType":"address"}],"anonymous":false},{"type":"event","name":"ExpectedWorkflowIdUpdated","inputs":[{"name":"previousId","type":"bytes32","indexed":true,"internalType":"bytes32"},{"name":"newId","type":"bytes32","indexed":true,"internalType":"bytes32"}],"anonymous":false},{"type":"event","name":"ExpectedWorkflowNameUpdated","inputs":[{"name":"previousName","type":"bytes10","indexed":true,"internalType":"bytes10"},{"name":"newName","type":"bytes10","indexed":true,"internalType":"bytes10"}],"anonymous":false},{"type":"event","name":"ForwarderAddressUpdated","inputs":[{"name":"previousForwarder","type":"address","indexed":true,"internalType":"address"},{"name":"newForwarder","type":"address","indexed":true,"internalType":"address"}],"anonymous":false},{"type":"event","name":"MarketCreated","inputs":[{"name":"marketId","type":"uint256","indexed":true,"internalType":"uint256"},{"name":"question","type":"string","indexed":false,"internalType":"string"},{"name":"deadline","type":"uint48","indexed":false,"internalType":"uint48"},{"name":"creator","type":"address","indexed":false,"internalType":"address"}],"anonymous":false},{"type":"event","name":"MarketSettled","inputs":[{"name":"marketId","type":"uint256","indexed":true,"internalType":"uint256"},{"name":"outcome","type":"uint8","indexed":false,"internalType":"enum SportsPredictionMarket.Prediction"},{"name":"confidence","type":"uint16","indexed":false,"internalType":"uint16"}],"anonymous":false},{"type":"event","name":"OwnershipTransferred","inputs":[{"name":"previousOwner","type":"address","indexed":true,"internalType":"address"},{"name":"newOwner","type":"address","indexed":true,"internalType":"address"}],"anonymous":false},{"type":"event","name":"PredictionMade","inputs":[{"name":"marketId","type":"uint256","indexed":true,"internalType":"uint256"},{"name":"predictor","type":"address","indexed":true,"internalType":"address"},{"name":"prediction","type":"uint8","indexed":false,"internalType":"enum SportsPredictionMarket.Prediction"},{"name":"amount","type":"uint256","indexed":false,"internalType":"uint256"}],"anonymous":false},{"type":"event","name":"SecurityWarning","inputs":[{"name":"message","type":"string","indexed":false,"internalType":"string"}],"anonymous":false},{"type":"event","name":"SettlementRequested","inputs":[{"name":"marketId","type":"uint256","indexed":true,"internalType":"uint256"}],"anonymous":false},{"type":"event","name":"WinningsClaimed","inputs":[{"name":"marketId","type":"uint256","indexed":true,"internalType":"uint256"},{"name":"claimer","type":"address","indexed":true,"internalType":"address"},{"name":"amount","type":"uint256","indexed":false,"internalType":"uint256"}],"anonymous":false},{"type":"error","name":"AlreadyClaimed","inputs":[]},{"type":"error","name":"AlreadyPredicted","inputs":[]},{"type":"error","name":"BettingClosed","inputs":[]},{"type":"error","name":"InvalidAmount","inputs":[]},{"type":"error","name":"InvalidAuthor","inputs":[{"name":"received","type":"address","internalType":"address"},{"name":"expected","type":"address","internalType":"address"}]},{"type":"error","name":"InvalidForwarderAddress","inputs":[]},{"type":"error","name":"InvalidSender","inputs":[{"name":"sender","type":"address","internalType":"address"},{"name":"expected","type":"address","internalType":"address"}]},{"type":"error","name":"InvalidWorkflowId","inputs":[{"name":"received","type":"bytes32","internalType":"bytes32"},{"name":"expected","type":"bytes32","internalType":"bytes32"}]},{"type":"error","name":"InvalidWorkflowName","inputs":[{"name":"received","type":"bytes10","internalType":"bytes10"},{"name":"expected","type":"bytes10","internalType":"bytes10"}]},{"type":"error","name":"MarketAlreadySettled","inputs":[]},{"type":"error","name":"MarketDoesNotExist","inputs":[]},{"type":"error","name":"MarketNotSettled","inputs":[]},{"type":"error","name":"NothingToClaim","inputs":[]},{"type":"error","name":"OwnableInvalidOwner","inputs":[{"name":"owner","type":"address","internalType":"address"}]},{"type":"error","name":"OwnableUnauthorizedAccount","inputs":[{"name":"account","type":"address","internalType":"address"}]},{"type":"error","name":"TransferFailed","inputs":[]},{"type":"error","name":"WorkflowNameRequiresAuthorValidation","inputs":[]}],"bytecode":{"object":"0x608060405234801562000010575f80fd5b5060405162003874380380620038748339818101604052810190620000369190620002eb565b80335f73ffffffffffffffffffffffffffffffffffffffff168173ffffffffffffffffffffffffffffffffffffffff1603620000ab575f6040517f1e4fbdf7000000000000000000000000000000000000000000000000000000008152600401620000a291906200032c565b60405180910390fd5b620000bc81620001c560201b60201c565b505f73ffffffffffffffffffffffffffffffffffffffff168173ffffffffffffffffffffffffffffffffffffffff160362000123576040517f381dd54000000000000000000000000000000000000000000000000000000000815260040160405180910390fd5b8060015f6101000a81548173ffffffffffffffffffffffffffffffffffffffff021916908373ffffffffffffffffffffffffffffffffffffffff1602179055508073ffffffffffffffffffffffffffffffffffffffff165f73ffffffffffffffffffffffffffffffffffffffff167f039ad854736757070884dd787ef1a7f58db33546639d1f3efddcf4a33fb8997e60405160405180910390a3505062000347565b5f805f9054906101000a900473ffffffffffffffffffffffffffffffffffffffff169050815f806101000a81548173ffffffffffffffffffffffffffffffffffffffff021916908373ffffffffffffffffffffffffffffffffffffffff1602179055508173ffffffffffffffffffffffffffffffffffffffff168173ffffffffffffffffffffffffffffffffffffffff167f8be0079c531659141344cd1fd0a4f28419497f9722a3daafe3b4186f6b6457e060405160405180910390a35050565b5f80fd5b5f73ffffffffffffffffffffffffffffffffffffffff82169050919050565b5f620002b5826200028a565b9050919050565b620002c781620002a9565b8114620002d2575f80fd5b50565b5f81519050620002e581620002bc565b92915050565b5f6020828403121562000303576200030262000286565b5b5f6200031284828501620002d5565b91505092915050565b6200032681620002a9565b82525050565b5f602082019050620003415f8301846200031b565b92915050565b61351f80620003555f395ff3fe608060405260043610610113575f3560e01c8063a619d8181161009f578063eb44fdd311610063578063eb44fdd314610347578063ef10220314610383578063f2fde38b146103bf578063f4fc6cdb146103e7578063f5c793ef1461040f57610113565b8063a619d8181461027d578063bc1fc27a146102a7578063c3c44ac2146102cf578063d60c884b146102f7578063d777cc6d1461031f57610113565b8063406ef2ef116100e6578063406ef2ef146101cf578063715018a6146101f9578063805f21321461020f57806384ec1ed2146102375780638da5cb5b1461025357610113565b806301ffc9a7146101175780633397cf67146101535780633441856f1461017d578063379607f5146101a7575b5f80fd5b348015610122575f80fd5b5061013d60048036038101906101389190612414565b610439565b60405161014a9190612459565b60405180910390f35b34801561015e575f80fd5b5061016761050a565b60405161017491906124b1565b60405180910390f35b348015610188575f80fd5b50610191610532565b60405161019e91906124b1565b60405180910390f35b3480156101b2575f80fd5b506101cd60048036038101906101c891906124fd565b61055a565b005b3480156101da575f80fd5b506101e3610926565b6040516101f09190612537565b60405180910390f35b348015610204575f80fd5b5061020d61092c565b005b34801561021a575f80fd5b50610235600480360381019061023091906125b1565b61093f565b005b610251600480360381019061024c9190612652565b610e3e565b005b34801561025e575f80fd5b5061026761112c565b60405161027491906124b1565b60405180910390f35b348015610288575f80fd5b50610291611153565b60405161029e91906126ca565b60405180910390f35b3480156102b2575f80fd5b506102cd60048036038101906102c89190612738565b611169565b005b3480156102da575f80fd5b506102f560048036038101906102f091906127b6565b61140a565b005b348015610302575f80fd5b5061031d6004803603810190610318919061280b565b611451565b005b34801561032a575f80fd5b506103456004803603810190610340919061280b565b61151c565b005b348015610352575f80fd5b5061036d600480360381019061036891906124fd565b611650565b60405161037a9190612a73565b60405180910390f35b34801561038e575f80fd5b506103a960048036038101906103a49190612be5565b61186b565b6040516103b69190612537565b60405180910390f35b3480156103ca575f80fd5b506103e560048036038101906103e0919061280b565b611b08565b005b3480156103f2575f80fd5b5061040d600480360381019061040891906124fd565b611b8c565b005b34801561041a575f80fd5b50610423611cf7565b6040516104309190612c4e565b60405180910390f35b5f7f805f2132000000000000000000000000000000000000000000000000000000007bffffffffffffffffffffffffffffffffffffffffffffffffffffffff1916827bffffffffffffffffffffffffffffffffffffffffffffffffffffffff1916148061050357507f01ffc9a7000000000000000000000000000000000000000000000000000000007bffffffffffffffffffffffffffffffffffffffffffffffffffffffff1916827bffffffffffffffffffffffffffffffffffffffffffffffffffffffff1916145b9050919050565b5f60025f9054906101000a900473ffffffffffffffffffffffffffffffffffffffff16905090565b5f60015f9054906101000a900473ffffffffffffffffffffffffffffffffffffffff16905090565b5f60055f8381526020019081526020015f2090505f73ffffffffffffffffffffffffffffffffffffffff16815f015f9054906101000a900473ffffffffffffffffffffffffffffffffffffffff1673ffffffffffffffffffffffffffffffffffffffff16036105f5576040517fb0cfa44700000000000000000000000000000000000000000000000000000000815260040160405180910390fd5b8060010160069054906101000a900460ff1661063d576040517f1ff09bee00000000000000000000000000000000000000000000000000000000815260040160405180910390fd5b5f60065f8481526020019081526020015f205f3373ffffffffffffffffffffffffffffffffffffffff1673ffffffffffffffffffffffffffffffffffffffff1681526020019081526020015f2090505f815f0154036106c8576040517f969bf72800000000000000000000000000000000000000000000000000000000815260040160405180910390fd5b8060010160019054906101000a900460ff1615610711576040517f646cf55800000000000000000000000000000000000000000000000000000000815260040160405180910390fd5b8160010160099054906101000a900460ff16600181111561073557610734612890565b5b816001015f9054906101000a900460ff16600181111561075857610757612890565b5b1461078f576040517f969bf72800000000000000000000000000000000000000000000000000000000815260040160405180910390fd5b60018160010160016101000a81548160ff0219169083151502179055505f826003015483600201546107c19190612c94565b90505f8060018111156107d7576107d6612890565b5b8460010160099054906101000a900460ff1660018111156107fb576107fa612890565b5b1461080a578360030154610810565b83600201545b90505f8183855f01546108239190612cc7565b61082d9190612d35565b90505f3373ffffffffffffffffffffffffffffffffffffffff168260405161085490612d92565b5f6040518083038185875af1925050503d805f811461088e576040519150601f19603f3d011682016040523d82523d5f602084013e610893565b606091505b50509050806108ce576040517f90b8ec1800000000000000000000000000000000000000000000000000000000815260040160405180910390fd5b3373ffffffffffffffffffffffffffffffffffffffff16877f5380cf6fe903b40c6d5a9e0dfbca2f3a423f0a21520b4d5947ed5169bdba946d846040516109159190612537565b60405180910390a350505050505050565b60045481565b610934611d00565b61093d5f611d87565b565b5f73ffffffffffffffffffffffffffffffffffffffff1660015f9054906101000a900473ffffffffffffffffffffffffffffffffffffffff1673ffffffffffffffffffffffffffffffffffffffff16141580156109e9575060015f9054906101000a900473ffffffffffffffffffffffffffffffffffffffff1673ffffffffffffffffffffffffffffffffffffffff163373ffffffffffffffffffffffffffffffffffffffff1614155b15610a4e573360015f9054906101000a900473ffffffffffffffffffffffffffffffffffffffff166040517fe1130dba000000000000000000000000000000000000000000000000000000008152600401610a45929190612da6565b60405180910390fd5b5f801b600354141580610aae57505f73ffffffffffffffffffffffffffffffffffffffff1660025f9054906101000a900473ffffffffffffffffffffffffffffffffffffffff1673ffffffffffffffffffffffffffffffffffffffff1614155b80610afd57505f60b01b75ffffffffffffffffffffffffffffffffffffffffffff1916600260149054906101000a900460b01b75ffffffffffffffffffffffffffffffffffffffffffff191614155b15610e2e575f805f610b5187878080601f0160208091040260200160405190810160405280939291908181526020018383808284375f81840152601f19601f82011690508083019250505050505050611e48565b9250925092505f801b60035414158015610b6d57506003548314155b15610bb357826003546040517f9bfa39ba000000000000000000000000000000000000000000000000000000008152600401610baa929190612dcd565b60405180910390fd5b5f73ffffffffffffffffffffffffffffffffffffffff1660025f9054906101000a900473ffffffffffffffffffffffffffffffffffffffff1673ffffffffffffffffffffffffffffffffffffffff1614158015610c5d575060025f9054906101000a900473ffffffffffffffffffffffffffffffffffffffff1673ffffffffffffffffffffffffffffffffffffffff168173ffffffffffffffffffffffffffffffffffffffff1614155b15610cc2578060025f9054906101000a900473ffffffffffffffffffffffffffffffffffffffff166040517fb8a98af8000000000000000000000000000000000000000000000000000000008152600401610cb9929190612da6565b60405180910390fd5b5f60b01b75ffffffffffffffffffffffffffffffffffffffffffff1916600260149054906101000a900460b01b75ffffffffffffffffffffffffffffffffffffffffffff191614610e2a575f73ffffffffffffffffffffffffffffffffffffffff1660025f9054906101000a900473ffffffffffffffffffffffffffffffffffffffff1673ffffffffffffffffffffffffffffffffffffffff1603610d93576040517f4847901100000000000000000000000000000000000000000000000000000000815260040160405180910390fd5b600260149054906101000a900460b01b75ffffffffffffffffffffffffffffffffffffffffffff19168275ffffffffffffffffffffffffffffffffffffffffffff191614610e295781600260149054906101000a900460b01b6040517f6c4609a6000000000000000000000000000000000000000000000000000000008152600401610e20929190612df4565b60405180910390fd5b5b5050505b610e388282611e6d565b50505050565b5f60055f8481526020019081526020015f2090505f73ffffffffffffffffffffffffffffffffffffffff16815f015f9054906101000a900473ffffffffffffffffffffffffffffffffffffffff1673ffffffffffffffffffffffffffffffffffffffff1603610ed9576040517fb0cfa44700000000000000000000000000000000000000000000000000000000815260040160405180910390fd5b8060010160069054906101000a900460ff1615610f22576040517f6622393700000000000000000000000000000000000000000000000000000000815260040160405180910390fd5b805f01601a9054906101000a900465ffffffffffff1665ffffffffffff16421115610f79576040517f61c54c4a00000000000000000000000000000000000000000000000000000000815260040160405180910390fd5b5f3403610fb2576040517f2c5211c600000000000000000000000000000000000000000000000000000000815260040160405180910390fd5b5f60065f8581526020019081526020015f205f3373ffffffffffffffffffffffffffffffffffffffff1673ffffffffffffffffffffffffffffffffffffffff1681526020019081526020015f2090505f815f01541461103d576040517f3b9e91cf00000000000000000000000000000000000000000000000000000000815260040160405180910390fd5b34815f018190555082816001015f6101000a81548160ff0219169083600181111561106b5761106a612890565b5b02179055505f600181111561108357611082612890565b5b83600181111561109657611095612890565b5b036110ba5734826002015f8282546110ae9190612c94565b925050819055506110d5565b34826003015f8282546110cd9190612c94565b925050819055505b3373ffffffffffffffffffffffffffffffffffffffff16847fda30f73a3e960b5ac088351f9267cabe93697fa1626149956fb9a54bc6d07b95853460405161111e929190612e2a565b60405180910390a350505050565b5f805f9054906101000a900473ffffffffffffffffffffffffffffffffffffffff16905090565b5f600260149054906101000a900460b01b905090565b611171611d00565b5f600260149054906101000a900460b01b90505f838390500361121e575f60b01b600260146101000a81548169ffffffffffffffffffff021916908360b01c02179055505f60b01b75ffffffffffffffffffffffffffffffffffffffffffff19168175ffffffffffffffffffffffffffffffffffffffffffff19167f1e7ddd09d504c82dcfc784a464b167469f5aad967606ec4822d848ef9141dfa560405160405180910390a350611406565b5f60028484604051611231929190612e75565b602060405180830381855afa15801561124c573d5f803e3d5ffd5b5050506040513d601f19601f8201168201806040525081019061126f9190612ea1565b90505f61129a826040516020016112869190612eec565b604051602081830303815290604052611f0c565b90505f600a67ffffffffffffffff8111156112b8576112b7612a97565b5b6040519080825280601f01601f1916602001820160405280156112ea5781602001600182028036833780820191505090505b5090505f5b600a8110156113645782818151811061130b5761130a612f06565b5b602001015160f81c60f81b82828151811061132957611328612f06565b5b60200101907effffffffffffffffffffffffffffffffffffffffffffffffffffffffffffff191690815f1a90535080806001019150506112ef565b508061136f90612f6c565b600260146101000a81548169ffffffffffffffffffff021916908360b01c0217905550600260149054906101000a900460b01b75ffffffffffffffffffffffffffffffffffffffffffff19168475ffffffffffffffffffffffffffffffffffffffffffff19167f1e7ddd09d504c82dcfc784a464b167469f5aad967606ec4822d848ef9141dfa560405160405180910390a3505050505b5050565b611412611d00565b5f60035490508160038190555081817f0dbedcdf21925e053b4c574eae180d7f2883235ab4976ecc0873598a2a999b0360405160405180910390a35050565b611459611d00565b5f60025f9054906101000a900473ffffffffffffffffffffffffffffffffffffffff1690508160025f6101000a81548173ffffffffffffffffffffffffffffffffffffffff021916908373ffffffffffffffffffffffffffffffffffffffff1602179055508173ffffffffffffffffffffffffffffffffffffffff168173ffffffffffffffffffffffffffffffffffffffff167f3321cda85c145617e47418aa14255e9dcbec53a753778e57591703b89a3cad3160405160405180910390a35050565b611524611d00565b5f60015f9054906101000a900473ffffffffffffffffffffffffffffffffffffffff1690505f73ffffffffffffffffffffffffffffffffffffffff168273ffffffffffffffffffffffffffffffffffffffff16036115b2577f704da7db165c79c1e33d542c079333bbde970a733032d2f95fec8fb7d770cbf76040516115a990613052565b60405180910390a15b8160015f6101000a81548173ffffffffffffffffffffffffffffffffffffffff021916908373ffffffffffffffffffffffffffffffffffffffff1602179055508173ffffffffffffffffffffffffffffffffffffffff168173ffffffffffffffffffffffffffffffffffffffff167f039ad854736757070884dd787ef1a7f58db33546639d1f3efddcf4a33fb8997e60405160405180910390a35050565b61165861231e565b60055f8381526020019081526020015f20604051806101400160405290815f82015f9054906101000a900473ffffffffffffffffffffffffffffffffffffffff1673ffffffffffffffffffffffffffffffffffffffff1673ffffffffffffffffffffffffffffffffffffffff1681526020015f820160149054906101000a900465ffffffffffff1665ffffffffffff1665ffffffffffff1681526020015f8201601a9054906101000a900465ffffffffffff1665ffffffffffff1665ffffffffffff168152602001600182015f9054906101000a900465ffffffffffff1665ffffffffffff1665ffffffffffff1681526020016001820160069054906101000a900460ff161515151581526020016001820160079054906101000a900461ffff1661ffff1661ffff1681526020016001820160099054906101000a900460ff1660018111156117aa576117a9612890565b5b60018111156117bc576117bb612890565b5b815260200160028201548152602001600382015481526020016004820180546117e49061309d565b80601f01602080910402602001604051908101604052809291908181526020018280546118109061309d565b801561185b5780601f106118325761010080835404028352916020019161185b565b820191905f5260205f20905b81548152906001019060200180831161183e57829003601f168201915b5050505050815250509050919050565b5f428265ffffffffffff16116118ad576040517f61c54c4a00000000000000000000000000000000000000000000000000000000815260040160405180910390fd5b60045f8154809291906118bf906130cd565b9190505590506040518061014001604052803373ffffffffffffffffffffffffffffffffffffffff1681526020014265ffffffffffff1681526020018365ffffffffffff1681526020015f65ffffffffffff1681526020015f151581526020015f61ffff1681526020015f600181111561193c5761193b612890565b5b81526020015f81526020015f81526020018481525060055f8381526020019081526020015f205f820151815f015f6101000a81548173ffffffffffffffffffffffffffffffffffffffff021916908373ffffffffffffffffffffffffffffffffffffffff1602179055506020820151815f0160146101000a81548165ffffffffffff021916908365ffffffffffff1602179055506040820151815f01601a6101000a81548165ffffffffffff021916908365ffffffffffff1602179055506060820151816001015f6101000a81548165ffffffffffff021916908365ffffffffffff16021790555060808201518160010160066101000a81548160ff02191690831515021790555060a08201518160010160076101000a81548161ffff021916908361ffff16021790555060c08201518160010160096101000a81548160ff02191690836001811115611a9257611a91612890565b5b021790555060e082015181600201556101008201518160030155610120820151816004019081611ac291906132a5565b50905050807f59349c0ac96aa07304c2785b7f8fa36652e90435031037d842660848d5fe7140848433604051611afa939291906133bb565b60405180910390a292915050565b611b10611d00565b5f73ffffffffffffffffffffffffffffffffffffffff168173ffffffffffffffffffffffffffffffffffffffff1603611b80575f6040517f1e4fbdf7000000000000000000000000000000000000000000000000000000008152600401611b7791906124b1565b60405180910390fd5b611b8981611d87565b50565b5f60055f8381526020019081526020015f2090505f73ffffffffffffffffffffffffffffffffffffffff16815f015f9054906101000a900473ffffffffffffffffffffffffffffffffffffffff1673ffffffffffffffffffffffffffffffffffffffff1603611c27576040517fb0cfa44700000000000000000000000000000000000000000000000000000000815260040160405180910390fd5b8060010160069054906101000a900460ff1615611c70576040517f6622393700000000000000000000000000000000000000000000000000000000815260040160405180910390fd5b805f01601a9054906101000a900465ffffffffffff1665ffffffffffff164211611cc6576040517f61c54c4a00000000000000000000000000000000000000000000000000000000815260040160405180910390fd5b817f2f9a2b33c2d8535c20aebb728f49ef89247afa053a62be1886eaa2699f523db160405160405180910390a25050565b5f600354905090565b611d0861214b565b73ffffffffffffffffffffffffffffffffffffffff16611d2661112c565b73ffffffffffffffffffffffffffffffffffffffff1614611d8557611d4961214b565b6040517f118cdaa7000000000000000000000000000000000000000000000000000000008152600401611d7c91906124b1565b60405180910390fd5b565b5f805f9054906101000a900473ffffffffffffffffffffffffffffffffffffffff169050815f806101000a81548173ffffffffffffffffffffffffffffffffffffffff021916908373ffffffffffffffffffffffffffffffffffffffff1602179055508173ffffffffffffffffffffffffffffffffffffffff168173ffffffffffffffffffffffffffffffffffffffff167f8be0079c531659141344cd1fd0a4f28419497f9722a3daafe3b4186f6b6457e060405160405180910390a35050565b5f805f6020840151925060408401519150604a8401516008600c021c90509193909250565b5f82829050118015611ec05750600160f81b82825f818110611e9257611e91612f06565b5b9050013560f81c60f81b7effffffffffffffffffffffffffffffffffffffffffffffffffffffffffffff1916145b15611ee557611ee082826001908092611edb939291906133ff565b612152565b611f08565b5f808383810190611ef69190612be5565b91509150611f04828261186b565b5050505b5050565b60605f60028351611f1d9190612cc7565b67ffffffffffffffff811115611f3657611f35612a97565b5b6040519080825280601f01601f191660200182016040528015611f685781602001600182028036833780820191505090505b5090505f5b8351811015612141576040518060400160405280601081526020017f30313233343536373839616263646566000000000000000000000000000000008152506004858381518110611fc157611fc0612f06565b5b602001015160f81c60f81b7effffffffffffffffffffffffffffffffffffffffffffffffffffffffffffff1916901c60f81c60ff168151811061200757612006612f06565b5b602001015160f81c60f81b826002836120209190612cc7565b8151811061203157612030612f06565b5b60200101907effffffffffffffffffffffffffffffffffffffffffffffffffffffffffffff191690815f1a9053506040518060400160405280601081526020017f3031323334353637383961626364656600000000000000000000000000000000815250600f60f81b8583815181106120ad576120ac612f06565b5b602001015160f81c60f81b1660f81c60ff16815181106120d0576120cf612f06565b5b602001015160f81c60f81b8260016002846120eb9190612cc7565b6120f59190612c94565b8151811061210657612105612f06565b5b60200101907effffffffffffffffffffffffffffffffffffffffffffffffffffffffffffff191690815f1a9053508080600101915050611f6d565b5080915050919050565b5f33905090565b5f805f84848101906121649190613463565b9250925092505f60055f8581526020019081526020015f2090505f73ffffffffffffffffffffffffffffffffffffffff16815f015f9054906101000a900473ffffffffffffffffffffffffffffffffffffffff1673ffffffffffffffffffffffffffffffffffffffff1603612205576040517fb0cfa44700000000000000000000000000000000000000000000000000000000815260040160405180910390fd5b8060010160069054906101000a900460ff161561224e576040517f6622393700000000000000000000000000000000000000000000000000000000815260040160405180910390fd5b60018160010160066101000a81548160ff021916908315150217905550828160010160096101000a81548160ff0219169083600181111561229257612291612890565b5b0217905550818160010160076101000a81548161ffff021916908361ffff16021790555042816001015f6101000a81548165ffffffffffff021916908365ffffffffffff160217905550837fe7e04325966e2267a261129a1dea74c7f3aa14602365e94ac80f3c93bee14840848460405161230e9291906134c2565b60405180910390a2505050505050565b6040518061014001604052805f73ffffffffffffffffffffffffffffffffffffffff1681526020015f65ffffffffffff1681526020015f65ffffffffffff1681526020015f65ffffffffffff1681526020015f151581526020015f61ffff1681526020015f600181111561239557612394612890565b5b81526020015f81526020015f8152602001606081525090565b5f604051905090565b5f80fd5b5f80fd5b5f7fffffffff0000000000000000000000000000000000000000000000000000000082169050919050565b6123f3816123bf565b81146123fd575f80fd5b50565b5f8135905061240e816123ea565b92915050565b5f60208284031215612429576124286123b7565b5b5f61243684828501612400565b91505092915050565b5f8115159050919050565b6124538161243f565b82525050565b5f60208201905061246c5f83018461244a565b92915050565b5f73ffffffffffffffffffffffffffffffffffffffff82169050919050565b5f61249b82612472565b9050919050565b6124ab81612491565b82525050565b5f6020820190506124c45f8301846124a2565b92915050565b5f819050919050565b6124dc816124ca565b81146124e6575f80fd5b50565b5f813590506124f7816124d3565b92915050565b5f60208284031215612512576125116123b7565b5b5f61251f848285016124e9565b91505092915050565b612531816124ca565b82525050565b5f60208201905061254a5f830184612528565b92915050565b5f80fd5b5f80fd5b5f80fd5b5f8083601f84011261257157612570612550565b5b8235905067ffffffffffffffff81111561258e5761258d612554565b5b6020830191508360018202830111156125aa576125a9612558565b5b9250929050565b5f805f80604085870312156125c9576125c86123b7565b5b5f85013567ffffffffffffffff8111156125e6576125e56123bb565b5b6125f28782880161255c565b9450945050602085013567ffffffffffffffff811115612615576126146123bb565b5b6126218782880161255c565b925092505092959194509250565b6002811061263b575f80fd5b50565b5f8135905061264c8161262f565b92915050565b5f8060408385031215612668576126676123b7565b5b5f612675858286016124e9565b92505060206126868582860161263e565b9150509250929050565b5f7fffffffffffffffffffff0000000000000000000000000000000000000000000082169050919050565b6126c481612690565b82525050565b5f6020820190506126dd5f8301846126bb565b92915050565b5f8083601f8401126126f8576126f7612550565b5b8235905067ffffffffffffffff81111561271557612714612554565b5b60208301915083600182028301111561273157612730612558565b5b9250929050565b5f806020838503121561274e5761274d6123b7565b5b5f83013567ffffffffffffffff81111561276b5761276a6123bb565b5b612777858286016126e3565b92509250509250929050565b5f819050919050565b61279581612783565b811461279f575f80fd5b50565b5f813590506127b08161278c565b92915050565b5f602082840312156127cb576127ca6123b7565b5b5f6127d8848285016127a2565b91505092915050565b6127ea81612491565b81146127f4575f80fd5b50565b5f81359050612805816127e1565b92915050565b5f602082840312156128205761281f6123b7565b5b5f61282d848285016127f7565b91505092915050565b61283f81612491565b82525050565b5f65ffffffffffff82169050919050565b61285f81612845565b82525050565b61286e8161243f565b82525050565b5f61ffff82169050919050565b61288a81612874565b82525050565b7f4e487b71000000000000000000000000000000000000000000000000000000005f52602160045260245ffd5b600281106128ce576128cd612890565b5b50565b5f8190506128de826128bd565b919050565b5f6128ed826128d1565b9050919050565b6128fd816128e3565b82525050565b61290c816124ca565b82525050565b5f81519050919050565b5f82825260208201905092915050565b5f5b8381101561294957808201518184015260208101905061292e565b5f8484015250505050565b5f601f19601f8301169050919050565b5f61296e82612912565b612978818561291c565b935061298881856020860161292c565b61299181612954565b840191505092915050565b5f61014083015f8301516129b25f860182612836565b5060208301516129c56020860182612856565b5060408301516129d86040860182612856565b5060608301516129eb6060860182612856565b5060808301516129fe6080860182612865565b5060a0830151612a1160a0860182612881565b5060c0830151612a2460c08601826128f4565b5060e0830151612a3760e0860182612903565b50610100830151612a4c610100860182612903565b50610120830151848203610120860152612a668282612964565b9150508091505092915050565b5f6020820190508181035f830152612a8b818461299c565b905092915050565b5f80fd5b7f4e487b71000000000000000000000000000000000000000000000000000000005f52604160045260245ffd5b612acd82612954565b810181811067ffffffffffffffff82111715612aec57612aeb612a97565b5b80604052505050565b5f612afe6123ae565b9050612b0a8282612ac4565b919050565b5f67ffffffffffffffff821115612b2957612b28612a97565b5b612b3282612954565b9050602081019050919050565b828183375f83830152505050565b5f612b5f612b5a84612b0f565b612af5565b905082815260208101848484011115612b7b57612b7a612a93565b5b612b86848285612b3f565b509392505050565b5f82601f830112612ba257612ba1612550565b5b8135612bb2848260208601612b4d565b91505092915050565b612bc481612845565b8114612bce575f80fd5b50565b5f81359050612bdf81612bbb565b92915050565b5f8060408385031215612bfb57612bfa6123b7565b5b5f83013567ffffffffffffffff811115612c1857612c176123bb565b5b612c2485828601612b8e565b9250506020612c3585828601612bd1565b9150509250929050565b612c4881612783565b82525050565b5f602082019050612c615f830184612c3f565b92915050565b7f4e487b71000000000000000000000000000000000000000000000000000000005f52601160045260245ffd5b5f612c9e826124ca565b9150612ca9836124ca565b9250828201905080821115612cc157612cc0612c67565b5b92915050565b5f612cd1826124ca565b9150612cdc836124ca565b9250828202612cea816124ca565b91508282048414831517612d0157612d00612c67565b5b5092915050565b7f4e487b71000000000000000000000000000000000000000000000000000000005f52601260045260245ffd5b5f612d3f826124ca565b9150612d4a836124ca565b925082612d5a57612d59612d08565b5b828204905092915050565b5f81905092915050565b50565b5f612d7d5f83612d65565b9150612d8882612d6f565b5f82019050919050565b5f612d9c82612d72565b9150819050919050565b5f604082019050612db95f8301856124a2565b612dc660208301846124a2565b9392505050565b5f604082019050612de05f830185612c3f565b612ded6020830184612c3f565b9392505050565b5f604082019050612e075f8301856126bb565b612e1460208301846126bb565b9392505050565b612e24816128e3565b82525050565b5f604082019050612e3d5f830185612e1b565b612e4a6020830184612528565b9392505050565b5f612e5c8385612d65565b9350612e69838584612b3f565b82840190509392505050565b5f612e81828486612e51565b91508190509392505050565b5f81519050612e9b8161278c565b92915050565b5f60208284031215612eb657612eb56123b7565b5b5f612ec384828501612e8d565b91505092915050565b5f819050919050565b612ee6612ee182612783565b612ecc565b82525050565b5f612ef78284612ed5565b60208201915081905092915050565b7f4e487b71000000000000000000000000000000000000000000000000000000005f52603260045260245ffd5b5f81519050919050565b5f819050602082019050919050565b5f612f578251612690565b80915050919050565b5f82821b905092915050565b5f612f7682612f33565b82612f8084612f3d565b9050612f8b81612f4c565b9250600a821015612fcb57612fc67fffffffffffffffffffff0000000000000000000000000000000000000000000083600a03600802612f60565b831692505b5050919050565b5f82825260208201905092915050565b7f466f7277617264657220616464726573732073657420746f207a65726f202d205f8201527f636f6e7472616374206973206e6f7720494e5345435552450000000000000000602082015250565b5f61303c603883612fd2565b915061304782612fe2565b604082019050919050565b5f6020820190508181035f83015261306981613030565b9050919050565b7f4e487b71000000000000000000000000000000000000000000000000000000005f52602260045260245ffd5b5f60028204905060018216806130b457607f821691505b6020821081036130c7576130c6613070565b5b50919050565b5f6130d7826124ca565b91507fffffffffffffffffffffffffffffffffffffffffffffffffffffffffffffffff820361310957613108612c67565b5b600182019050919050565b5f819050815f5260205f209050919050565b5f6020601f8301049050919050565b5f600883026131647fffffffffffffffffffffffffffffffffffffffffffffffffffffffffffffffff82612f60565b61316e8683612f60565b95508019841693508086168417925050509392505050565b5f819050919050565b5f6131a96131a461319f846124ca565b613186565b6124ca565b9050919050565b5f819050919050565b6131c28361318f565b6131d66131ce826131b0565b848454613135565b825550505050565b5f90565b6131ea6131de565b6131f58184846131b9565b505050565b5b818110156132185761320d5f826131e2565b6001810190506131fb565b5050565b601f82111561325d5761322e81613114565b61323784613126565b81016020851015613246578190505b61325a61325285613126565b8301826131fa565b50505b505050565b5f82821c905092915050565b5f61327d5f1984600802613262565b1980831691505092915050565b5f613295838361326e565b9150826002028217905092915050565b6132ae82612912565b67ffffffffffffffff8111156132c7576132c6612a97565b5b6132d1825461309d565b6132dc82828561321c565b5f60209050601f83116001811461330d575f84156132fb578287015190505b613305858261328a565b86555061336c565b601f19841661331b86613114565b5f5b828110156133425784890151825560018201915060208501945060208101905061331d565b8683101561335f578489015161335b601f89168261326e565b8355505b6001600288020188555050505b505050505050565b5f61337e82612912565b6133888185612fd2565b935061339881856020860161292c565b6133a181612954565b840191505092915050565b6133b581612845565b82525050565b5f6060820190508181035f8301526133d38186613374565b90506133e260208301856133ac565b6133ef60408301846124a2565b949350505050565b5f80fd5b5f80fd5b5f8085851115613412576134116133f7565b5b83861115613423576134226133fb565b5b6001850283019150848603905094509492505050565b61344281612874565b811461344c575f80fd5b50565b5f8135905061345d81613439565b92915050565b5f805f6060848603121561347a576134796123b7565b5b5f613487868287016124e9565b93505060206134988682870161263e565b92505060406134a98682870161344f565b9150509250925092565b6134bc81612874565b82525050565b5f6040820190506134d55f830185612e1b565b6134e260208301846134b3565b939250505056fea26469706673582212206d1e731cbdfc279c78733bb27fbb6a8080fbade0a60de75b041365482b368cb264736f6c63430008180033","linkReferences":{}},"methodIdentifiers":{"claim(uint256)":"379607f5","createMarket(string,uint48)":"ef102203","getExpectedAuthor()":"3397cf67","getExpectedWorkflowId()":"f5c793ef","getExpectedWorkflowName()":"a619d818","getForwarderAddress()":"3441856f","getMarket(uint256)":"eb44fdd3","nextMarketId()":"406ef2ef","onReport(bytes,bytes)":"805f2132","owner()":"8da5cb5b","predict(uint256,uint8)":"84ec1ed2","renounceOwnership()":"715018a6","requestSettlement(uint256)":"f4fc6cdb","setExpectedAuthor(address)":"d60c884b","setExpectedWorkflowId(bytes32)":"c3c44ac2","setExpectedWorkflowName(string)":"bc1fc27a","setForwarderAddress(address)":"d777cc6d","supportsInterface(bytes4)":"01ffc9a7","transferOwnership(address)":"f2fde38b"},"id":3}